:020000020000FC
:2000000008400814004000B4000000000800683A00000000000000000000000000000000DE
:20000400DEC0001406C00134D6A41714068000B41085A214008000B418C5A61400C000B4C6
:200008001000001510C0032610FFFD361080010400203C8000203480DEFFF704003FFF0617
:20000C00DF000715DFC008150001883ADF00070410800003D0A000171080201C10803FCCEF
:200010001080109810BFE004D0A00117103FF91EE0BFFD151080001710800117D0A001176F
:20001400E03FFC15E0BFFE15E0BFFC1700007A06E0BFFA1510800084D0E0021700006C06BB
:200018001085883AE0BFFA171885883A1085883AE0BFF9151080001710BFFF84E0BFFA17B5
:20001C0000005306E0BFFB15E0BFFB17D0E002171085883A1085883A108000171885883A8E
:20002000E0BFFF17E0BFFF151880270EE0FFF917E0BFFB17D0E002171085883A1085883A74
:20002400108000171885883AE0BFFC17E0BFF915E0BFFA1710C00084D0E003171880081ECB
:200028001085883AE0BFFB171885883A1085883A10C00015E0FFFF17E0BFFC170000330635
:20002C00E0BFFA1710C000841009883A1884C03A10C00084E0BFFA171885003AE0BFFB17B3
:2000300010803FCC2084703AD0E00317100027261085883AE0BFFB171885883A1085883AE2
:2000340010C00015E0FFFF17E0BFFC1700001F06E0BFFA1710C00084D0E003171880081E6F
:200038001085883AE0BFFB171885883A1085883A10C00015E0FFFF17E0BFFC170000130645
:20003C00E0BFFA1710C000841009883A1884C03A10C00084E0BFFA171885003AE0BFFB17A3
:2000400010803FCC2084703AD0E00317100007261085883AE0BFFB171885883A1085883AF2
:2000440010C00015E0FFFF1710800044E0BFFB17E0BFFA17E0BFFB15E0BFFB1710C00084D9
:20004800D0E0031718BFA90E1085883AE0BFFA171885883A1085883A10C00015E0FFF917AF
:20004C0010800044E0BFFA17E0FFFD17E0BFFA151885883AE0BFFC17E0FFFA1710BFFF841C
:20005000E0FFFC1718BF8E161885883AE0BFFD17E13FFD17E0BFFC1500202BC0E17FFE17AD
:20005400E0BFFC171007883AD0A0001710FF801610C0000500C012040005883A003F6C06B2
:2000580020C0004C20000726180001262008D07A294B883A1145883AF800283A203FFA1E3F
:20005C00DEFFFC04F800283ADF000304DF000315E17FFE15E13FFD15E0FFFE17E1BFFF1523
:2000600018800C26E0BFFD17E0BFFE1700000806E0FFFE1510C0010419000104E0FFFD1769
:2000640018C00017E13FFD15E0FFFE1710C0001518BFF51EE0BFFF17DF000017E037883A14
:20006800F800283ADEC00104DFC00115DEFFFE04D839883ADF00001521042304010000B41F
:20006C002942A404014000B431842304018000B4010000B400202E40014000B421000804F6
:20007000018000B42940080400202E40318008042102A004010000B42942A004014000B4FB
:200074003182A404018000B4002059C000202E40E037883A002069C0DF000017DFC0011746
:20007800F800283ADEC00204DFC00215DEFFFD04DF000104DF000115002042400009883A90
:20007C00002045800001883A010000B400205E400020758021019004D0E18C17D1218B1796
:20008000180B883AD0A18D17002005C0100D883A01000044E0BFFF15E13FFF1700204C40C8
:20008400DEFFFD04002076C0DF000115DFC00215E13FFF15DF00010400800044002073808E
:20008800E037883A1001703ADF000017DFC00117F800283ADEC00204DF000015DEFFFF0445
:20008C00E037883AD839883ADEC00104DF000017DEFFFE04F800283ADF000015DFC001152D
:20009000008000B4D839883A1080001710842004008000B41000052610800017108420041C
:2000940000000206103EE83A1085A504008000B4DFC00117E037883ADEC00204DF00001738
:20009800DEFFFB04F800283ADF000315DFC00415E13FFF15DF00030410000816E0BFFF1766
:20009C0001400304E13FFF171007883A00202BC01082AE04008000B4000001061885883A04
:2000A000E0BFFD150005883A10001926E0BFFD1710800017E0BFFD17100006261080041785
:2000A40010800017E0BFFD17E13FFD171080041700000106103EE83AE0BFFE150005883A13
:2000A80000206B80E13FFF171000070EE0BFFE171007883A002047400085C83AE0BFFE1763
:2000AC0000BFFFC4188000150005883A000007060020474000000506008014441007883ACE
:2000B00000BFFFC418800015DFC00117E037883ADEC00204DF000017DEFFFF04F800283A9D
:2000B400D839883ADF000015DF000017E037883AF800283ADEC00104DF000315DEFFFC04C5
:2000B800E13FFD15DF000304E1BFFF15E17FFE15E037883AE0BFFF17DEC00104DF000017C2
:2000BC00DEFFFD04F800283ADF000115DFC00215008000B4DF000104E0BFFF1510829F0441
:2000C000E0BFFF1700000606103EE83A1080001710BFFF04E0BFFF17E0FFFF17E0BFFF1519
:2000C4001082A004008000B4E037883A18BFF62EDF000017DFC00117F800283ADEC0020433
:2000C800DFC00215DEFFFD04DF000104DF00011510829F04008000B400000606E0BFFF1583
:2000CC0010800017E0BFFF17E0BFFF17103EE83AE0BFFF1510BFFF04008000B4E0FFFF17E5
:2000D00018BFF62E1082A004DFC00117E037883ADEC00204DF000017DEFFFF04F800283A7B
:2000D400D839883ADF000015DF000017E037883AF800283ADEC00104DFC00315DEFFFC04E5
:2000D800DC000115DF000215E13FFE15DF000204108000D0E0BFFE17040000B41000111EFD
:2000DC00E0BFFE178402AE04014003041009883A1080020400202BC0100000158085883A68
:2000E0008402AE04040000B41009883AE0BFFE1700202BC001400304100000158085883A42
:2000E400DFC00217E6FFFF04DC000017DF000117F800283ADEC00304DF000015DEFFFF049F
:2000E800000170FAD839883ADF000017E037883AF800283ADEC00104000D883A200B883A32
:2000EC00000F883A0009883ADEFFFE0400207A41DC000015000B883A2021883ADFC0011528
:2000F000008000B400208B8011000017108421041000012620800F178009883A103EE83AF8
:2000F400008000B40020A4C010842104DEFFFA0414000017DC000315DFC00515DC40041593
:2000F8002023883A8080521710C001171000362620C00E16010007C48800211E1A400044F1
:2000FC0018C7883A18C000841240011518C7883A1940001510C7883ADFC005170005883A55
:20010000DC000317DC400417F800283ADEC0060410800004008000340100640410002526A4
:20010400D9800115D940001500000000D9C00215D9800117D940001710001C26D9C00217E9
:200108001000011580C0521710C000150240004410006215808052150007883A100063155E
:20010C0018D1883A883FDF261211883A4211883A010000444180221520C8983A1180621761
:2001100011806215310CB03A0180008441C042151180631789BFD31E110063153108B03A53
:2001140080805304003FCF06003FC70680805215003FD10600BFFFC410842104008000B468
:20011800DEFFF40410800017D8800015DD800815DD00061510805204DFC00B15DC80041552
:20011C00DDC00915DF000A15DCC00515DD400715DC000215DC4003152829883A2025883ADA
:2001200005BFFFC4D880011514C05217D8800017DD40011798001D26173FFFC498800117C5
:2001240014000044E0000D168421883A8421883A9C63883A84402004A0001E269C21883A86
:2001280015001C2680804017843FFF04E73FFFC4E5BFF91E8C7FFF04108000040080003449
:20012C009880011710000926988000171000311E9809883A1000342600000000A8800015AC
:20013000983FE41EACC00017DF000A17DFC00B17DD800817DDC00917DD000617DD40071724
:20013400DC800417DCC00517DC000217DC400317F800283ADEC00C0480C0001798800117C2
:200138001700152610BFFFC4183FDE26800000151708983A008000449DC001179880621718
:20013C001000061E2084703A98800117183EE83AA880001715FFC51E003FC20614FFD32630
:200140002084703A98806317894000171000061E183EE83A9009883A9F000115003FF406EA
:2001440089000017003FEA06003FEF06183EE83A982B883A98800017983FB61E1027883AC8
:200148000005883A003FD106DEFFFD04003FFA06DF000204DF0002150001883AE13FFF15CB
:20014C00E0BFFE15E0BFFF1710000226E0BFFE1700000106002AF070003FFF06002AF0B0A1
:200150006C756E2F7665642F000000430000006C00000000000000000000000000000000F4
:2001540000000000000000000000000000000000000000000000000000000000000000008B
:20015800000000000000000000000000000000000000000000000000000000000000000087
:20015C00000000000000000000000000000000000000000000000000000000000000000083
:2001600000000000000000000000000000000000000000000000000000000000000000007F
:200210000000000000000000000210740000000000020A8000021074000000000000000036
:20021400000205B800000000000000000000000000020A900000000000000000000000006F
:200218000000000000020A9000020A9000000000000000000000000000000000000000008E
:20021C000000000000000000000000000000000000000000000000000000000000000000C2
:200220000000000000000000000000000000000000000000000000000000000000000000BE
:200224000000000000000000000000000000000000000000000000000000000000000000BA
:200228000000000000000000000000000000000000000000000000000000000000000000B6
:20022C000000000000000000000000000000000000000000000000000000000000000000B2
:200230000000000000000000000000000000000000000000000000000000000000000000AE
:200234000000000000000000000000000000000000000000000000000000000000000000AA
:200238000000000000000000000000000000000000000000000000000000000000000000A6
:20023C000000000000000000000000000000000000000000000000000000000000000000A2
:2002400000000000000000000000000000000000000000000000000000000000000000009E
:2002440000000000000000000000000000000000000000000000000000020F8C00020F24C8
:200248000000000000020FF400000000000000000000000000000000000000000000000091
:20024C0000000000000000000000000000020A8C00000000000000000000000000000000FA
:2002500000000000000000000000000000000000000000000000000000000000000000008E
:2002540000000000000000000000000000000000000000000000000000000000000000008A
:20025800000000000000000000000000000000000000000000000000000000000000000185
:20025C00E66D1234ABCD330E0000000B0005DEEC0000000000000000000000000000000056
:2002600000000000000000000000000000000000000000000000000000000000000000007E
:2002640000000000000000000000000000000000000000000000000000000000000000007A
:20026800000000000000000000000000000000000000000000000000000000000000000076
:20026C00000000000000000000000000000000000000000000000000000000000000000072
:2002700000000000000000000000000000000000000000000000000000000000000000006E
:2002740000000000000000000000000000000000000000000000000000000000000000006A
:20027800000000000000000000000000000000000000000000000000000000000000000066
:20027C00000000000000000000000000000000000000000000000000000000000000000062
:2002800000000000000000000000000000000000000000000000000000000000000000005E
:2002840000000000000000000000000000000000000000000000000000000000000000005A
:20028800000000000000000000000000000000000000000000000000000000000000000056
:20028C00000000000000000000000000000000000000000000000000000000000000000052
:2002900000000000000000000000000000000000000000000000000000000000000000004E
:2002940000000000000000000000000000000000000000000000000000000000000000004A
:20029800000000000000000000000000000000000000000000000000000000000000000046
:20029C00000000000000000000000000000000000000000000000000000000000000000042
:2002A00000000000000000000000000000000000000000000000000000000000000000003E
:2002A40000000000000000000000000000000000000000000000000000000000000000003A
:2002A800000000000000000000000000000000000000000000000000000000000000000036
:2002AC00000000000000000000000000000000000000000000000000000000000000000032
:2002B00000000000000000000000000000000000000000000000000000000000000000002E
:2002B40000000000000000000000000000000000000000000000000000000000000000002A
:2002B800000000000000000000000000000000000000000000000000000000000000000026
:2002BC00000000000000000000000000000000000000000000000000000000000000000022
:2002C00000000000000000000000000000000000000000000000000000000000000000001E
:2002C40000000000000000000000000000000000000000000000000000000000000000001A
:2002C800000000000000000000000000000000000000000000000000000211F8000211EE0A
:2002CC0000030900000212000002106C0002106C00020A9000020A9000000000FFFFFFFFC2
:2002D00000020C3800020C3800000000000000000000000000000000000000000000000082
:2002D40000000000000000000000000000000000000000000000000000000000000000000A
:2002D800000000000000000000000000000000000000000000000000000000000000000006
:2002DC00000000000000000000000000000000000000000000000000000000000000000002
:2002E0000000000000000000000000000000000000000000000000000000000000000000FE
:00000001FF
